{
  "contractName": "Asset",
  "abi": [
    {
      "constant": true,
      "inputs": [],
      "name": "name",
      "outputs": [
        {
          "name": "",
          "type": "string"
        }
      ],
      "payable": false,
      "stateMutability": "view",
      "type": "function"
    },
    {
      "constant": true,
      "inputs": [],
      "name": "status",
      "outputs": [
        {
          "name": "",
          "type": "string"
        }
      ],
      "payable": false,
      "stateMutability": "view",
      "type": "function"
    },
    {
      "constant": true,
      "inputs": [],
      "name": "avail",
      "outputs": [
        {
          "name": "",
          "type": "bool"
        }
      ],
      "payable": false,
      "stateMutability": "view",
      "type": "function"
    },
    {
      "constant": true,
      "inputs": [],
      "name": "publisher",
      "outputs": [
        {
          "name": "",
          "type": "address"
        }
      ],
      "payable": false,
      "stateMutability": "view",
      "type": "function"
    },
    {
      "constant": true,
      "inputs": [],
      "name": "holder",
      "outputs": [
        {
          "name": "",
          "type": "address"
        }
      ],
      "payable": false,
      "stateMutability": "view",
      "type": "function"
    },
    {
      "inputs": [
        {
          "name": "_name",
          "type": "string"
        },
        {
          "name": "_status",
          "type": "string"
        },
        {
          "name": "_avail",
          "type": "bool"
        },
        {
          "name": "_publisher",
          "type": "address"
        }
      ],
      "payable": false,
      "stateMutability": "nonpayable",
      "type": "constructor"
    },
    {
      "anonymous": false,
      "inputs": [
        {
          "indexed": false,
          "name": "time",
          "type": "uint256"
        },
        {
          "indexed": false,
          "name": "name",
          "type": "string"
        },
        {
          "indexed": false,
          "name": "publisher",
          "type": "address"
        }
      ],
      "name": "EventAssetPublishedAt",
      "type": "event"
    },
    {
      "anonymous": false,
      "inputs": [
        {
          "indexed": false,
          "name": "time",
          "type": "uint256"
        },
        {
          "indexed": false,
          "name": "name",
          "type": "string"
        },
        {
          "indexed": false,
          "name": "newHolder",
          "type": "address"
        }
      ],
      "name": "EventAssetTransferredAt",
      "type": "event"
    },
    {
      "anonymous": false,
      "inputs": [
        {
          "indexed": false,
          "name": "time",
          "type": "uint256"
        },
        {
          "indexed": false,
          "name": "name",
          "type": "string"
        },
        {
          "indexed": false,
          "name": "status",
          "type": "string"
        }
      ],
      "name": "EventAssetUpdatedAt",
      "type": "event"
    },
    {
      "anonymous": false,
      "inputs": [
        {
          "indexed": false,
          "name": "time",
          "type": "uint256"
        },
        {
          "indexed": false,
          "name": "name",
          "type": "string"
        }
      ],
      "name": "EventAssetRemovedAt",
      "type": "event"
    },
    {
      "constant": false,
      "inputs": [
        {
          "name": "_receiver",
          "type": "address"
        }
      ],
      "name": "transfer",
      "outputs": [],
      "payable": false,
      "stateMutability": "nonpayable",
      "type": "function"
    },
    {
      "constant": false,
      "inputs": [
        {
          "name": "_status",
          "type": "string"
        }
      ],
      "name": "updateStatus",
      "outputs": [],
      "payable": false,
      "stateMutability": "nonpayable",
      "type": "function"
    },
    {
      "constant": false,
      "inputs": [
        {
          "name": "_name",
          "type": "string"
        }
      ],
      "name": "updateName",
      "outputs": [],
      "payable": false,
      "stateMutability": "nonpayable",
      "type": "function"
    },
    {
      "constant": false,
      "inputs": [],
      "name": "setNotAvail",
      "outputs": [],
      "payable": false,
      "stateMutability": "nonpayable",
      "type": "function"
    },
    {
      "constant": false,
      "inputs": [],
      "name": "setAvail",
      "outputs": [],
      "payable": false,
      "stateMutability": "nonpayable",
      "type": "function"
    },
    {
      "constant": false,
      "inputs": [],
      "name": "remove",
      "outputs": [],
      "payable": false,
      "stateMutability": "nonpayable",
      "type": "function"
    }
  ],
  "bytecode": "0x606060405234156200001057600080fd5b604051620010d0380380620010d08339810160405280805182019190602001805182019190602001805190602001909190805190602001909190505083600090805190602001906200006492919062000240565b5080600160006101000a81548173ffffffffffffffffffffffffffffffffffffffff021916908373ffffffffffffffffffffffffffffffffffffffff16021790555080600260006101000a81548173ffffffffffffffffffffffffffffffffffffffff021916908373ffffffffffffffffffffffffffffffffffffffff1602179055508260039080519060200190620000ff92919062000240565b5081600460006101000a81548160ff0219169083151502179055507f6872c71b5b4b3222330b29fc9fe1149f80f0edd24401af4925aeabfb28a4c68b426000600160009054906101000a900473ffffffffffffffffffffffffffffffffffffffff1660405180848152602001806020018373ffffffffffffffffffffffffffffffffffffffff1673ffffffffffffffffffffffffffffffffffffffff168152602001828103825284818154600181600116156101000203166002900481526020019150805460018160011615610100020316600290048015620002265780601f10620001fa5761010080835404028352916020019162000226565b820191906000526020600020905b8154815290600101906020018083116200020857829003601f168201915b505094505050505060405180910390a150505050620002ef565b828054600181600116156101000203166002900490600052602060002090601f016020900481019282601f106200028357805160ff1916838001178555620002b4565b82800160010185558215620002b4579182015b82811115620002b357825182559160200191906001019062000296565b5b509050620002c39190620002c7565b5090565b620002ec91905b80821115620002e8576000816000905550600101620002ce565b5090565b90565b610dd180620002ff6000396000f3006060604052600436106100af576000357c0100000000000000000000000000000000000000000000000000000000900463ffffffff16806306fdde03146100b45780631a69523014610142578063200d2ed21461017b5780632c215998146102095780635bdeac421461026657806370dbf4ef146102935780637fa34dcf146102a857806384da92a7146102bd5780638c72c54e1461031a578063a7f437791461036f578063e534155d14610384575b600080fd5b34156100bf57600080fd5b6100c76103d9565b6040518080602001828103825283818151815260200191508051906020019080838360005b838110156101075780820151818401526020810190506100ec565b50505050905090810190601f1680156101345780820380516001836020036101000a031916815260200191505b509250505060405180910390f35b341561014d57600080fd5b610179600480803573ffffffffffffffffffffffffffffffffffffffff16906020019091905050610477565b005b341561018657600080fd5b61018e610653565b6040518080602001828103825283818151815260200191508051906020019080838360005b838110156101ce5780820151818401526020810190506101b3565b50505050905090810190601f1680156101fb5780820380516001836020036101000a031916815260200191505b509250505060405180910390f35b341561021457600080fd5b610264600480803590602001908201803590602001908080601f016020809104026020016040519081016040528093929190818152602001838380828437820191505050505050919050506106f1565b005b341561027157600080fd5b610279610858565b604051808215151515815260200191505060405180910390f35b341561029e57600080fd5b6102a661086b565b005b34156102b357600080fd5b6102bb6108e6565b005b34156102c857600080fd5b610318600480803590602001908201803590602001908080601f01602080910402602001604051908101604052809392919081815260200183838082843782019150505050505091905050610961565b005b341561032557600080fd5b61032d610ac8565b604051808273ffffffffffffffffffffffffffffffffffffffff1673ffffffffffffffffffffffffffffffffffffffff16815260200191505060405180910390f35b341561037a57600080fd5b610382610aee565b005b341561038f57600080fd5b610397610cda565b604051808273ffffffffffffffffffffffffffffffffffffffff1673ffffffffffffffffffffffffffffffffffffffff16815260200191505060405180910390f35b60008054600181600116156101000203166002900480601f01602080910402602001604051908101604052809291908181526020018280546001816001161561010002031660029004801561046f5780601f106104445761010080835404028352916020019161046f565b820191906000526020600020905b81548152906001019060200180831161045257829003601f168201915b505050505081565b33600260009054906101000a900473ffffffffffffffffffffffffffffffffffffffff1673ffffffffffffffffffffffffffffffffffffffff168173ffffffffffffffffffffffffffffffffffffffff161415156104d457600080fd5b60011515600460009054906101000a900460ff1615151415156104f657600080fd5b81600260006101000a81548173ffffffffffffffffffffffffffffffffffffffff021916908373ffffffffffffffffffffffffffffffffffffffff1602179055507fd0798e80922d74bf790df1da5af1c3830946b448a24e26c71932118680debca9426000600260009054906101000a900473ffffffffffffffffffffffffffffffffffffffff1660405180848152602001806020018373ffffffffffffffffffffffffffffffffffffffff1673ffffffffffffffffffffffffffffffffffffffff16815260200182810382528481815460018160011615610100020316600290048152602001915080546001816001161561010002031660029004801561063f5780601f106106145761010080835404028352916020019161063f565b820191906000526020600020905b81548152906001019060200180831161062257829003601f168201915b505094505050505060405180910390a15050565b60038054600181600116156101000203166002900480601f0160208091040260200160405190810160405280929190818152602001828054600181600116156101000203166002900480156106e95780601f106106be576101008083540402835291602001916106e9565b820191906000526020600020905b8154815290600101906020018083116106cc57829003601f168201915b505050505081565b8060039080519060200190610707929190610d00565b507f704ac415e523589cc690ed1fd5894ebae4cd438ee60ee1915db396e948b6d0cd42600060036040518084815260200180602001806020018381038352858181546001816001161561010002031660029004815260200191508054600181600116156101000203166002900480156107c15780601f10610796576101008083540402835291602001916107c1565b820191906000526020600020905b8154815290600101906020018083116107a457829003601f168201915b50508381038252848181546001816001161561010002031660029004815260200191508054600181600116156101000203166002900480156108445780601f1061081957610100808354040283529160200191610844565b820191906000526020600020905b81548152906001019060200180831161082757829003601f168201915b50509550505050505060405180910390a150565b600460009054906101000a900460ff1681565b33600260009054906101000a900473ffffffffffffffffffffffffffffffffffffffff1673ffffffffffffffffffffffffffffffffffffffff168173ffffffffffffffffffffffffffffffffffffffff161415156108c857600080fd5b6000600460006101000a81548160ff02191690831515021790555050565b33600260009054906101000a900473ffffffffffffffffffffffffffffffffffffffff1673ffffffffffffffffffffffffffffffffffffffff168173ffffffffffffffffffffffffffffffffffffffff1614151561094357600080fd5b6001600460006101000a81548160ff02191690831515021790555050565b8060009080519060200190610977929190610d00565b507f704ac415e523589cc690ed1fd5894ebae4cd438ee60ee1915db396e948b6d0cd4260006003604051808481526020018060200180602001838103835285818154600181600116156101000203166002900481526020019150805460018160011615610100020316600290048015610a315780601f10610a0657610100808354040283529160200191610a31565b820191906000526020600020905b815481529060010190602001808311610a1457829003601f168201915b5050838103825284818154600181600116156101000203166002900481526020019150805460018160011615610100020316600290048015610ab45780601f10610a8957610100808354040283529160200191610ab4565b820191906000526020600020905b815481529060010190602001808311610a9757829003601f168201915b50509550505050505060405180910390a150565b600160009054906101000a900473ffffffffffffffffffffffffffffffffffffffff1681565b33600160009054906101000a900473ffffffffffffffffffffffffffffffffffffffff1673ffffffffffffffffffffffffffffffffffffffff168173ffffffffffffffffffffffffffffffffffffffff16141515610b4b57600080fd5b6000600460006101000a81548160ff021916908315150217905550600160009054906101000a900473ffffffffffffffffffffffffffffffffffffffff16600260006101000a81548173ffffffffffffffffffffffffffffffffffffffff021916908373ffffffffffffffffffffffffffffffffffffffff1602179055506040805190810160405280600781526020017f52656d6f7665640000000000000000000000000000000000000000000000000081525060039080519060200190610c14929190610d00565b507f0fb4482309eb0270c499d95946a3570c4c9e6b60d66b57585223907d8addbcb94260006040518083815260200180602001828103825283818154600181600116156101000203166002900481526020019150805460018160011615610100020316600290048015610cc85780601f10610c9d57610100808354040283529160200191610cc8565b820191906000526020600020905b815481529060010190602001808311610cab57829003601f168201915b5050935050505060405180910390a150565b600260009054906101000a900473ffffffffffffffffffffffffffffffffffffffff1681565b828054600181600116156101000203166002900490600052602060002090601f016020900481019282601f10610d4157805160ff1916838001178555610d6f565b82800160010185558215610d6f579182015b82811115610d6e578251825591602001919060010190610d53565b5b509050610d7c9190610d80565b5090565b610da291905b80821115610d9e576000816000905550600101610d86565b5090565b905600a165627a7a723058205c573a918b74db3197801fb2ddfe4fc23eac89efe2bc713db0baa76241e2dcd10029",
  "source": "pragma solidity ^0.4.13;\n\ncontract Asset {\n    \n    // ######### Parameters ######## //\n    \n    string public name;\n    address public publisher;\n    address public holder;\n    string public status;\n    bool public avail;\n    \n    // ######### Events ######## //\n    \n    event EventAssetPublishedAt(uint256 time, string name, address publisher);\n    event EventAssetTransferredAt(uint256 time, string name, address newHolder);\n    event EventAssetUpdatedAt(uint256 time, string name, string status);\n    event EventAssetRemovedAt(uint256 time, string name);\n\n    // ######### Modifiers ######## //\n\n    modifier onlyPublisher(address sender){\n        require(sender == publisher);\n        _;\n    }\n\n    modifier onlyHolder(address sender){\n        require(sender == holder);\n        _;\n    } \n    \n    modifier onlyHolderOrPublisher(address sender){\n        require(sender == holder || sender == publisher);\n        _;\n    } \n    \n    modifier isAvail(){\n        require(avail == true);\n        _;\n    }\n\n    // ######### Constructor ######## //\n    \n    function Asset(string _name, string _status, bool _avail, address _publisher) public {\n        name = _name;\n        publisher = _publisher;\n        holder = _publisher;\n        status = _status;\n        avail = _avail;\n        EventAssetPublishedAt(now, name, publisher);\n    }\n    \n    // ######### Public Functions ######## //\n    \n    // Transfer //\n\n    function transfer(address _receiver) public onlyHolder(msg.sender) isAvail() {\n        holder = _receiver;\n        EventAssetTransferredAt(now, name, holder);\n    }\n\n    // Updator //\n    \n    function updateStatus(string _status) public {\n        status = _status;\n        EventAssetUpdatedAt(now, name, status);\n    }\n    \n    function updateName(string _name) public {\n        name = _name;\n        EventAssetUpdatedAt(now, name, status);\n    }\n    \n    // Setter //\n    \n    function setNotAvail() public onlyHolder(msg.sender) {\n        avail = false;\n    }\n    \n    function setAvail() public onlyHolder(msg.sender) {\n        avail = true;\n    }\n    \n    // Remover //\n    \n    function remove() public onlyPublisher(msg.sender) {\n        avail = false;\n        holder = publisher;\n        status = \"Removed\";\n        EventAssetRemovedAt(now, name);\n    }\n\n}",
  "sourcePath": "/Users/yao-chiehhu/Documents/workspace/iodine-backend/contracts/Asset.sol",
  "compiler": {
    "name": "solc",
    "version": "0.4.19+commit.c4cbbb05.Emscripten.clang"
  },
  "schemaVersion": "1.0.1",
  "updatedAt": "2018-03-14T19:42:03.422Z"
}