{
  "contractName": "Asset",
  "abi": [
    {
      "constant": true,
      "inputs": [],
      "name": "name",
      "outputs": [
        {
          "name": "",
          "type": "string"
        }
      ],
      "payable": false,
      "stateMutability": "view",
      "type": "function"
    },
    {
      "constant": true,
      "inputs": [
        {
          "name": "",
          "type": "uint256"
        }
      ],
      "name": "AVAILABILITY",
      "outputs": [
        {
          "name": "",
          "type": "string"
        }
      ],
      "payable": false,
      "stateMutability": "view",
      "type": "function"
    },
    {
      "constant": true,
      "inputs": [],
      "name": "publisher",
      "outputs": [
        {
          "name": "",
          "type": "address"
        }
      ],
      "payable": false,
      "stateMutability": "view",
      "type": "function"
    },
    {
      "constant": true,
      "inputs": [],
      "name": "condition",
      "outputs": [
        {
          "name": "",
          "type": "string"
        }
      ],
      "payable": false,
      "stateMutability": "view",
      "type": "function"
    },
    {
      "constant": true,
      "inputs": [],
      "name": "holder",
      "outputs": [
        {
          "name": "",
          "type": "address"
        }
      ],
      "payable": false,
      "stateMutability": "view",
      "type": "function"
    },
    {
      "constant": true,
      "inputs": [],
      "name": "availStatusID",
      "outputs": [
        {
          "name": "",
          "type": "uint8"
        }
      ],
      "payable": false,
      "stateMutability": "view",
      "type": "function"
    },
    {
      "inputs": [
        {
          "name": "_name",
          "type": "string"
        },
        {
          "name": "_condition",
          "type": "string"
        },
        {
          "name": "_availStatusID",
          "type": "uint8"
        },
        {
          "name": "_publisher",
          "type": "address"
        }
      ],
      "payable": false,
      "stateMutability": "nonpayable",
      "type": "constructor"
    },
    {
      "anonymous": false,
      "inputs": [
        {
          "indexed": false,
          "name": "time",
          "type": "uint256"
        },
        {
          "indexed": false,
          "name": "name",
          "type": "string"
        },
        {
          "indexed": false,
          "name": "publisher",
          "type": "address"
        }
      ],
      "name": "EventAssetPublishedAt",
      "type": "event"
    },
    {
      "anonymous": false,
      "inputs": [
        {
          "indexed": false,
          "name": "time",
          "type": "uint256"
        },
        {
          "indexed": false,
          "name": "name",
          "type": "string"
        },
        {
          "indexed": false,
          "name": "newHolder",
          "type": "address"
        }
      ],
      "name": "EventAssetTransferredAt",
      "type": "event"
    },
    {
      "anonymous": false,
      "inputs": [
        {
          "indexed": false,
          "name": "time",
          "type": "uint256"
        },
        {
          "indexed": false,
          "name": "name",
          "type": "string"
        },
        {
          "indexed": false,
          "name": "condition",
          "type": "string"
        },
        {
          "indexed": false,
          "name": "avail",
          "type": "string"
        }
      ],
      "name": "EventAssetUpdatedAt",
      "type": "event"
    },
    {
      "anonymous": false,
      "inputs": [
        {
          "indexed": false,
          "name": "time",
          "type": "uint256"
        },
        {
          "indexed": false,
          "name": "name",
          "type": "string"
        }
      ],
      "name": "EventAssetRemovedAt",
      "type": "event"
    },
    {
      "constant": false,
      "inputs": [
        {
          "name": "_receiver",
          "type": "address"
        }
      ],
      "name": "transfer",
      "outputs": [],
      "payable": false,
      "stateMutability": "nonpayable",
      "type": "function"
    },
    {
      "constant": false,
      "inputs": [
        {
          "name": "_condition",
          "type": "string"
        }
      ],
      "name": "updateCondition",
      "outputs": [],
      "payable": false,
      "stateMutability": "nonpayable",
      "type": "function"
    },
    {
      "constant": false,
      "inputs": [
        {
          "name": "_name",
          "type": "string"
        }
      ],
      "name": "updateName",
      "outputs": [],
      "payable": false,
      "stateMutability": "nonpayable",
      "type": "function"
    },
    {
      "constant": false,
      "inputs": [
        {
          "name": "_availStatusID",
          "type": "uint8"
        }
      ],
      "name": "updateAvail",
      "outputs": [],
      "payable": false,
      "stateMutability": "nonpayable",
      "type": "function"
    },
    {
      "constant": false,
      "inputs": [],
      "name": "remove",
      "outputs": [],
      "payable": false,
      "stateMutability": "nonpayable",
      "type": "function"
    }
  ],
  "bytecode": "0x60606040526060604051908101604052806040805190810160405280600981526020017f617661696c61626c65000000000000000000000000000000000000000000000081525081526020016040805190810160405280600b81526020017f756e617661696c61626c6500000000000000000000000000000000000000000081525081526020016040805190810160405280600781526020017f72656d6f766564000000000000000000000000000000000000000000000000008152508152506000906003620000d19291906200030f565b503415620000de57600080fd5b604051620016a8380380620016a88339810160405280805182019190602001805182019190602001805190602001909190805190602001909190505083600190805190602001906200013292919062000376565b5080600260006101000a81548173ffffffffffffffffffffffffffffffffffffffff021916908373ffffffffffffffffffffffffffffffffffffffff16021790555080600360006101000a81548173ffffffffffffffffffffffffffffffffffffffff021916908373ffffffffffffffffffffffffffffffffffffffff1602179055508260049080519060200190620001cd92919062000376565b5081600560006101000a81548160ff021916908360ff1602179055507f6872c71b5b4b3222330b29fc9fe1149f80f0edd24401af4925aeabfb28a4c68b426001600260009054906101000a900473ffffffffffffffffffffffffffffffffffffffff1660405180848152602001806020018373ffffffffffffffffffffffffffffffffffffffff1673ffffffffffffffffffffffffffffffffffffffff168152602001828103825284818154600181600116156101000203166002900481526020019150805460018160011615610100020316600290048015620002f55780601f10620002c957610100808354040283529160200191620002f5565b820191906000526020600020905b815481529060010190602001808311620002d757829003601f168201915b505094505050505060405180910390a15050505062000529565b82805482825590600052602060002090810192821562000363579160200282015b828111156200036257825182908051906020019062000351929190620003fd565b509160200191906001019062000330565b5b50905062000372919062000484565b5090565b828054600181600116156101000203166002900490600052602060002090601f016020900481019282601f10620003b957805160ff1916838001178555620003ea565b82800160010185558215620003ea579182015b82811115620003e9578251825591602001919060010190620003cc565b5b509050620003f99190620004b5565b5090565b828054600181600116156101000203166002900490600052602060002090601f016020900481019282601f106200044057805160ff191683800117855562000471565b8280016001018555821562000471579182015b828111156200047057825182559160200191906001019062000453565b5b509050620004809190620004b5565b5090565b620004b291905b80821115620004ae5760008181620004a49190620004dd565b506001016200048b565b5090565b90565b620004da91905b80821115620004d6576000816000905550600101620004bc565b5090565b90565b50805460018160011615610100020316600290046000825580601f1062000505575062000526565b601f016020900490600052602060002090810190620005259190620004b5565b5b50565b61116f80620005396000396000f3006060604052600436106100af576000357c0100000000000000000000000000000000000000000000000000000000900463ffffffff16806306fdde03146100b45780631a695230146101425780633d2186c01461017b57806373cd0bc61461021757806384da92a71461023d5780638c72c54e1461029a5780639d3c7cb6146102ef578063a7f437791461034c578063c503133114610361578063e534155d146103ef578063f467f96a14610444575b600080fd5b34156100bf57600080fd5b6100c7610473565b6040518080602001828103825283818151815260200191508051906020019080838360005b838110156101075780820151818401526020810190506100ec565b50505050905090810190601f1680156101345780820380516001836020036101000a031916815260200191505b509250505060405180910390f35b341561014d57600080fd5b610179600480803573ffffffffffffffffffffffffffffffffffffffff16906020019091905050610511565b005b341561018657600080fd5b61019c60048080359060200190919050506106ec565b6040518080602001828103825283818151815260200191508051906020019080838360005b838110156101dc5780820151818401526020810190506101c1565b50505050905090810190601f1680156102095780820380516001836020036101000a031916815260200191505b509250505060405180910390f35b341561022257600080fd5b61023b600480803560ff169060200190919050506107a8565b005b341561024857600080fd5b610298600480803590602001908201803590602001908080601f016020809104026020016040519081016040528093929190818152602001838380828437820191505050505050919050506109c8565b005b34156102a557600080fd5b6102ad610be4565b604051808273ffffffffffffffffffffffffffffffffffffffff1673ffffffffffffffffffffffffffffffffffffffff16815260200191505060405180910390f35b34156102fa57600080fd5b61034a600480803590602001908201803590602001908080601f01602080910402602001604051908101604052809392919081815260200183838082843782019150505050505091905050610c0a565b005b341561035757600080fd5b61035f610e26565b005b341561036c57600080fd5b610374610fc7565b6040518080602001828103825283818151815260200191508051906020019080838360005b838110156103b4578082015181840152602081019050610399565b50505050905090810190601f1680156103e15780820380516001836020036101000a031916815260200191505b509250505060405180910390f35b34156103fa57600080fd5b610402611065565b604051808273ffffffffffffffffffffffffffffffffffffffff1673ffffffffffffffffffffffffffffffffffffffff16815260200191505060405180910390f35b341561044f57600080fd5b61045761108b565b604051808260ff1660ff16815260200191505060405180910390f35b60018054600181600116156101000203166002900480601f0160208091040260200160405190810160405280929190818152602001828054600181600116156101000203166002900480156105095780601f106104de57610100808354040283529160200191610509565b820191906000526020600020905b8154815290600101906020018083116104ec57829003601f168201915b505050505081565b33600360009054906101000a900473ffffffffffffffffffffffffffffffffffffffff1673ffffffffffffffffffffffffffffffffffffffff168173ffffffffffffffffffffffffffffffffffffffff1614151561056e57600080fd5b6000600560009054906101000a900460ff1660ff1614151561058f57600080fd5b81600360006101000a81548173ffffffffffffffffffffffffffffffffffffffff021916908373ffffffffffffffffffffffffffffffffffffffff1602179055507fd0798e80922d74bf790df1da5af1c3830946b448a24e26c71932118680debca9426001600360009054906101000a900473ffffffffffffffffffffffffffffffffffffffff1660405180848152602001806020018373ffffffffffffffffffffffffffffffffffffffff1673ffffffffffffffffffffffffffffffffffffffff1681526020018281038252848181546001816001161561010002031660029004815260200191508054600181600116156101000203166002900480156106d85780601f106106ad576101008083540402835291602001916106d8565b820191906000526020600020905b8154815290600101906020018083116106bb57829003601f168201915b505094505050505060405180910390a15050565b6000818154811015156106fb57fe5b90600052602060002090016000915090508054600181600116156101000203166002900480601f0160208091040260200160405190810160405280929190818152602001828054600181600116156101000203166002900480156107a05780601f10610775576101008083540402835291602001916107a0565b820191906000526020600020905b81548152906001019060200180831161078357829003601f168201915b505050505081565b80600560006101000a81548160ff021916908360ff1602179055507feb1961a41395c9e2d71a1ded77c04646183a8b953338759e0a35dd8c5b3de4f242600160046000600560009054906101000a900460ff1660ff1681548110151561080a57fe5b9060005260206000209001604051808581526020018060200180602001806020018481038452878181546001816001161561010002031660029004815260200191508054600181600116156101000203166002900480156108ac5780601f10610881576101008083540402835291602001916108ac565b820191906000526020600020905b81548152906001019060200180831161088f57829003601f168201915b505084810383528681815460018160011615610100020316600290048152602001915080546001816001161561010002031660029004801561092f5780601f106109045761010080835404028352916020019161092f565b820191906000526020600020905b81548152906001019060200180831161091257829003601f168201915b50508481038252858181546001816001161561010002031660029004815260200191508054600181600116156101000203166002900480156109b25780601f10610987576101008083540402835291602001916109b2565b820191906000526020600020905b81548152906001019060200180831161099557829003601f168201915b505097505050505050505060405180910390a150565b80600190805190602001906109de92919061109e565b507feb1961a41395c9e2d71a1ded77c04646183a8b953338759e0a35dd8c5b3de4f242600160046000600560009054906101000a900460ff1660ff16815481101515610a2657fe5b906000526020600020900160405180858152602001806020018060200180602001848103845287818154600181600116156101000203166002900481526020019150805460018160011615610100020316600290048015610ac85780601f10610a9d57610100808354040283529160200191610ac8565b820191906000526020600020905b815481529060010190602001808311610aab57829003601f168201915b5050848103835286818154600181600116156101000203166002900481526020019150805460018160011615610100020316600290048015610b4b5780601f10610b2057610100808354040283529160200191610b4b565b820191906000526020600020905b815481529060010190602001808311610b2e57829003601f168201915b5050848103825285818154600181600116156101000203166002900481526020019150805460018160011615610100020316600290048015610bce5780601f10610ba357610100808354040283529160200191610bce565b820191906000526020600020905b815481529060010190602001808311610bb157829003601f168201915b505097505050505050505060405180910390a150565b600260009054906101000a900473ffffffffffffffffffffffffffffffffffffffff1681565b8060049080519060200190610c2092919061109e565b507feb1961a41395c9e2d71a1ded77c04646183a8b953338759e0a35dd8c5b3de4f242600160046000600560009054906101000a900460ff1660ff16815481101515610c6857fe5b906000526020600020900160405180858152602001806020018060200180602001848103845287818154600181600116156101000203166002900481526020019150805460018160011615610100020316600290048015610d0a5780601f10610cdf57610100808354040283529160200191610d0a565b820191906000526020600020905b815481529060010190602001808311610ced57829003601f168201915b5050848103835286818154600181600116156101000203166002900481526020019150805460018160011615610100020316600290048015610d8d5780601f10610d6257610100808354040283529160200191610d8d565b820191906000526020600020905b815481529060010190602001808311610d7057829003601f168201915b5050848103825285818154600181600116156101000203166002900481526020019150805460018160011615610100020316600290048015610e105780601f10610de557610100808354040283529160200191610e10565b820191906000526020600020905b815481529060010190602001808311610df357829003601f168201915b505097505050505050505060405180910390a150565b33600260009054906101000a900473ffffffffffffffffffffffffffffffffffffffff1673ffffffffffffffffffffffffffffffffffffffff168173ffffffffffffffffffffffffffffffffffffffff16141515610e8357600080fd5b6002600560006101000a81548160ff021916908360ff160217905550600260009054906101000a900473ffffffffffffffffffffffffffffffffffffffff16600360006101000a81548173ffffffffffffffffffffffffffffffffffffffff021916908373ffffffffffffffffffffffffffffffffffffffff1602179055507f0fb4482309eb0270c499d95946a3570c4c9e6b60d66b57585223907d8addbcb94260016040518083815260200180602001828103825283818154600181600116156101000203166002900481526020019150805460018160011615610100020316600290048015610fb55780601f10610f8a57610100808354040283529160200191610fb5565b820191906000526020600020905b815481529060010190602001808311610f9857829003601f168201915b5050935050505060405180910390a150565b60048054600181600116156101000203166002900480601f01602080910402602001604051908101604052809291908181526020018280546001816001161561010002031660029004801561105d5780601f106110325761010080835404028352916020019161105d565b820191906000526020600020905b81548152906001019060200180831161104057829003601f168201915b505050505081565b600360009054906101000a900473ffffffffffffffffffffffffffffffffffffffff1681565b600560009054906101000a900460ff1681565b828054600181600116156101000203166002900490600052602060002090601f016020900481019282601f106110df57805160ff191683800117855561110d565b8280016001018555821561110d579182015b8281111561110c5782518255916020019190600101906110f1565b5b50905061111a919061111e565b5090565b61114091905b8082111561113c576000816000905550600101611124565b5090565b905600a165627a7a72305820b2678ee4dc71e63e23769c7c7d67878551a157c3294ccd37a5dd6f1f946c6b6a0029",
  "source": "pragma solidity ^0.4.13;\n\ncontract Asset {\n    \n    // ######### Constants ######## //\n    \n    string[] public AVAILABILITY = [\"available\", \"unavailable\", \"removed\"];\n    \n    // ######### Parameters ######## //\n    \n    string public name;\n    address public publisher;\n    address public holder;\n    string public condition;\n    uint8 public availStatusID; \n    \n    // ######### Events ######## //\n    \n    event EventAssetPublishedAt(uint256 time, string name, address publisher);\n    event EventAssetTransferredAt(uint256 time, string name, address newHolder);\n    event EventAssetUpdatedAt(uint256 time, string name, string condition, string avail);\n    event EventAssetRemovedAt(uint256 time, string name);\n\n    // ######### Modifiers ######## //\n\n    modifier onlyPublisher(address sender){\n        require(sender == publisher);\n        _;\n    }\n\n    modifier onlyHolder(address sender){\n        require(sender == holder);\n        _;\n    } \n    \n    modifier onlyAvail(){\n        require(availStatusID == 0);\n        _;\n    }\n\n    // ######### Constructor ######## //\n    \n    function Asset(string _name, string _condition, uint8 _availStatusID, address _publisher) public {\n        name = _name;\n        publisher = _publisher;\n        holder = _publisher;\n        condition = _condition;\n        availStatusID = _availStatusID;\n        EventAssetPublishedAt(now, name, publisher);\n    }\n    \n    // ######### Public Functions ######## //\n    \n    // Transfer //\n\n    function transfer(address _receiver) public onlyHolder(msg.sender) onlyAvail() {\n        holder = _receiver;\n        EventAssetTransferredAt(now, name, holder);\n    }\n\n    // Updator //\n    \n    function updateCondition(string _condition) public {\n        condition = _condition;\n        EventAssetUpdatedAt(now, name, condition, AVAILABILITY[availStatusID]);\n    }\n    \n    function updateName(string _name) public {\n        name = _name;\n        EventAssetUpdatedAt(now, name, condition, AVAILABILITY[availStatusID]);\n    }\n    \n    function updateAvail(uint8 _availStatusID) public {\n        availStatusID = _availStatusID;\n        EventAssetUpdatedAt(now, name, condition, AVAILABILITY[availStatusID]);\n    }\n    \n    // Remover //\n    \n    function remove() public onlyPublisher(msg.sender) {\n        availStatusID = 2;\n        holder = publisher;\n        EventAssetRemovedAt(now, name);\n    }\n\n}\n\n\n\n\ncontract Custodian {\n\n    // ######### Parameters ######## //\n\n    uint256 public volume;\n    address public owner;\n    mapping (uint256 => address) assets;\n    \n    // ######### Events ######## //\n\n    event EventPublishAsset(uint256 id, address newAddress);\n    \n    // ######### Modifiers ######## //\n\n    modifier onlyOwner(address sender){\n        require(sender == owner);\n        _;\n    }\n    \n    // ######### Internal Functions ######## //\n    \n    function getNextID() internal returns (uint256) {\n        volume = volume + 1;   // Increment total volume\n        return volume;\n    }\n\n    // ######### Constructor ######## //\n\n    function Custodian() public {\n        volume = 0;\n        owner = msg.sender;\n    }\n    \n    // ######### Public Functions ######## //\n\n    function publishAsset(string _name, string _condition, uint8 _availStatusID) public returns (uint256) {    //onlyOwner(msg.sender) is removed\n        uint256 assetID = getNextID();\n        address assetAddress = new Asset(_name, _condition, _availStatusID, msg.sender);\n        assets[assetID] = assetAddress;\n        EventPublishAsset(assetID, assetAddress);\n\n        return assetID;\n    }\n    \n    function getAssetAddrByID(uint256 assetID) public view returns (address) {    //onlyOwner(msg.sender)\n        return assets[assetID];\n    }\n    \n    function changeOwner(address newOwner) public onlyOwner(msg.sender) {\n        owner = newOwner;\n    }\n}\n",
  "sourcePath": "/Users/yao-chiehhu/Documents/workspace/iodine-backend/contracts/Custodian.sol",
  "compiler": {
    "name": "solc",
    "version": "0.4.19+commit.c4cbbb05.Emscripten.clang"
  },
  "schemaVersion": "1.0.1",
  "updatedAt": "2018-03-15T04:04:49.463Z"
}