{
  "contractName": "Client",
  "abi": [
    {
      "constant": true,
      "inputs": [],
      "name": "creator",
      "outputs": [
        {
          "name": "",
          "type": "address"
        }
      ],
      "payable": false,
      "stateMutability": "view",
      "type": "function"
    },
    {
      "inputs": [
        {
          "name": "_seed",
          "type": "uint256"
        },
        {
          "name": "_creator",
          "type": "address"
        }
      ],
      "payable": false,
      "stateMutability": "nonpayable",
      "type": "constructor"
    },
    {
      "anonymous": false,
      "inputs": [
        {
          "indexed": false,
          "name": "time",
          "type": "uint256"
        }
      ],
      "name": "ClientSeedChangedAt",
      "type": "event"
    },
    {
      "constant": false,
      "inputs": [
        {
          "name": "newSeed",
          "type": "uint256"
        }
      ],
      "name": "changeSeed",
      "outputs": [
        {
          "name": "success",
          "type": "bool"
        }
      ],
      "payable": false,
      "stateMutability": "nonpayable",
      "type": "function"
    },
    {
      "constant": true,
      "inputs": [],
      "name": "getSeed",
      "outputs": [
        {
          "name": "",
          "type": "uint256"
        }
      ],
      "payable": false,
      "stateMutability": "view",
      "type": "function"
    }
  ],
  "bytecode": "0x6060604052341561000f57600080fd5b6040516040806102a5833981016040528080519060200190919080519060200190919050508160018190555080600260006101000a81548173ffffffffffffffffffffffffffffffffffffffff021916908373ffffffffffffffffffffffffffffffffffffffff16021790555050506102188061008d6000396000f300606060405260043610610057576000357c0100000000000000000000000000000000000000000000000000000000900463ffffffff16806302d05d3f1461005c578063396f12c8146100b157806339e7357c146100ec575b600080fd5b341561006757600080fd5b61006f610115565b604051808273ffffffffffffffffffffffffffffffffffffffff1673ffffffffffffffffffffffffffffffffffffffff16815260200191505060405180910390f35b34156100bc57600080fd5b6100d2600480803590602001909190505061013b565b604051808215151515815260200191505060405180910390f35b34156100f757600080fd5b6100ff610184565b6040518082815260200191505060405180910390f35b600260009054906101000a900473ffffffffffffffffffffffffffffffffffffffff1681565b6000816001819055507f6ec643c7833f05e7096f1c018583250c97f053c3f919c6e6ecaefeaa9be2993f426040518082815260200191505060405180910390a160019050919050565b600033600260009054906101000a900473ffffffffffffffffffffffffffffffffffffffff1673ffffffffffffffffffffffffffffffffffffffff168173ffffffffffffffffffffffffffffffffffffffff161415156101e357600080fd5b600154915050905600a165627a7a7230582089a8206fee096b0544335c2d22e9d397923cf5221b8a8ce41b5ef4c368a9888b0029",
  "source": "pragma solidity ^0.4.13;\n\ncontract Client {\n\n    address owner; // currently not in use\n    uint256 seed;\n    address public creator;\n\n    event ClientSeedChangedAt(uint256 time);\n\n    modifier onlyCreater(address sender){\n        require(sender == creator);\n        _;\n    }\n\n    /** Internal functions **/\n    function getRamdomNumber() internal view returns (uint256) {\n        return uint256(keccak256(seed));\n    }\n    /************************/\n\n\n    // Constructor\n    function Client(uint256 _seed, address _creator) public {\n        seed = _seed;\n        creator = _creator;\n    }\n\n    function changeSeed(uint256 newSeed) public returns (bool success) {\n        seed = newSeed;\n        ClientSeedChangedAt(now);\n\n        return true;\n    }\n  \n    function getSeed() public view onlyCreater(msg.sender) returns (uint256) {\n        return seed;\n    }\n  \n}",
  "sourcePath": "/Users/yao-chiehhu/Documents/workspace/cryBlock/contracts/Client.sol",
  "compiler": {
    "name": "solc",
    "version": "0.4.19+commit.c4cbbb05.Emscripten.clang"
  },
  "schemaVersion": "1.0.1",
  "updatedAt": "2018-02-28T09:18:21.419Z"
}