{
  "contractName": "Client",
  "abi": [
    {
      "constant": true,
      "inputs": [],
      "name": "creator",
      "outputs": [
        {
          "name": "",
          "type": "address"
        }
      ],
      "payable": false,
      "stateMutability": "view",
      "type": "function"
    },
    {
      "inputs": [
        {
          "name": "_seed",
          "type": "uint256"
        },
        {
          "name": "_creator",
          "type": "address"
        }
      ],
      "payable": false,
      "stateMutability": "nonpayable",
      "type": "constructor"
    },
    {
      "anonymous": false,
      "inputs": [
        {
          "indexed": false,
          "name": "time",
          "type": "uint256"
        }
      ],
      "name": "ClientSeedChangedAt",
      "type": "event"
    },
    {
      "constant": false,
      "inputs": [],
      "name": "resetRandomState",
      "outputs": [
        {
          "name": "",
          "type": "uint256"
        }
      ],
      "payable": false,
      "stateMutability": "nonpayable",
      "type": "function"
    },
    {
      "constant": true,
      "inputs": [],
      "name": "getRamdomNumber",
      "outputs": [
        {
          "name": "",
          "type": "uint256"
        }
      ],
      "payable": false,
      "stateMutability": "view",
      "type": "function"
    },
    {
      "constant": false,
      "inputs": [
        {
          "name": "max",
          "type": "uint256"
        }
      ],
      "name": "getRamdomNumberSeedDepend",
      "outputs": [
        {
          "name": "",
          "type": "uint256"
        }
      ],
      "payable": false,
      "stateMutability": "nonpayable",
      "type": "function"
    },
    {
      "constant": false,
      "inputs": [
        {
          "name": "newSeed",
          "type": "uint256"
        }
      ],
      "name": "changeSeed",
      "outputs": [
        {
          "name": "success",
          "type": "bool"
        }
      ],
      "payable": false,
      "stateMutability": "nonpayable",
      "type": "function"
    },
    {
      "constant": true,
      "inputs": [],
      "name": "getSeed",
      "outputs": [
        {
          "name": "",
          "type": "uint256"
        }
      ],
      "payable": false,
      "stateMutability": "view",
      "type": "function"
    }
  ],
  "bytecode": "0x60606040526000600355341561001457600080fd5b60405160408061042c833981016040528080519060200190919080519060200190919050508160018190555080600260006101000a81548173ffffffffffffffffffffffffffffffffffffffff021916908373ffffffffffffffffffffffffffffffffffffffff160217905550505061039a806100926000396000f300606060405260043610610078576000357c0100000000000000000000000000000000000000000000000000000000900463ffffffff16806302d05d3f1461007d578063396f12c8146100d257806339e7357c1461010d57806361e3f29314610136578063c8989e611461016d578063e4b3f87e14610196575b600080fd5b341561008857600080fd5b6100906101bf565b604051808273ffffffffffffffffffffffffffffffffffffffff1673ffffffffffffffffffffffffffffffffffffffff16815260200191505060405180910390f35b34156100dd57600080fd5b6100f360048080359060200190919050506101e5565b604051808215151515815260200191505060405180910390f35b341561011857600080fd5b61012061022e565b6040518082815260200191505060405180910390f35b341561014157600080fd5b6101576004808035906020019091905050610296565b6040518082815260200191505060405180910390f35b341561017857600080fd5b61018061033e565b6040518082815260200191505060405180910390f35b34156101a157600080fd5b6101a961035d565b6040518082815260200191505060405180910390f35b600260009054906101000a900473ffffffffffffffffffffffffffffffffffffffff1681565b6000816001819055507f6ec643c7833f05e7096f1c018583250c97f053c3f919c6e6ecaefeaa9be2993f426040518082815260200191505060405180910390a160019050919050565b600033600260009054906101000a900473ffffffffffffffffffffffffffffffffffffffff1673ffffffffffffffffffffffffffffffffffffffff168173ffffffffffffffffffffffffffffffffffffffff1614151561028d57600080fd5b60015491505090565b60008060035414156102e657600154604051808281526020019150506040518091039020604051808260001916600019168152602001915050604051809103902060019004600381905550610326565b6003546040518082815260200191505060405180910390206040518082600019166000191681526020019150506040518091039020600190046003819055505b60018260035481151561033557fe5b06019050919050565b60006001600a60014303406001900481151561035657fe5b0601905090565b6000806003819055506003549050905600a165627a7a7230582096ad44268e9c4fe6b779f3265447fee1b445fffc32bf8839260f8159b6ab56570029",
  "source": "contract Client {\n\n    address owner; // currently not in use\n    uint256 seed;\n    address public creator;\n    uint256 randomState = 0;\n\n    event ClientSeedChangedAt(uint256 time);\n\n    modifier onlyCreater(address sender){\n        require(sender == creator);\n        _;\n    }\n\n    /** Internal functions **/\n    // function getRamdomNumber() internal view returns (uint256) {\n    //     uint256 random_number = uint(block.blockhash(block.number-1))%10 + 1;\n    //     // uint256(keccak256(seed));\n    //     return random_number;\n    // }\n    /************************/\n    \n    function resetRandomState() public returns (uint256) {\n        randomState = 0;\n        return randomState;\n    }\n    \n    function getRamdomNumber() public view returns (uint256) {\n        return uint(block.blockhash(block.number-1))%10 + 1;\n    }\n    \n    function getRamdomNumberSeedDepend(uint256 max) public returns (uint256) {\n        // First Time\n        if (randomState == 0) {\n            randomState = uint256(keccak256(keccak256(seed)));\n        } else {\n            randomState = uint256(keccak256(keccak256(randomState)));\n        }\n        return uint256(randomState) % max + 1;\n    }\n\n\n    // Constructor\n    function Client(uint256 _seed, address _creator) public {\n        seed = _seed;\n        creator = _creator;\n    }\n\n    function changeSeed(uint256 newSeed) public returns (bool success) {\n        seed = newSeed;\n        ClientSeedChangedAt(now);\n\n        return true;\n    }\n  \n    function getSeed() public view onlyCreater(msg.sender) returns (uint256) {\n        return seed;\n    }\n  \n}",
  "sourcePath": "/Users/yao-chiehhu/Documents/workspace/iodine-backend/contracts/Client.sol",
  "compiler": {
    "name": "solc",
    "version": "0.4.19+commit.c4cbbb05.Emscripten.clang"
  },
  "schemaVersion": "1.0.1",
  "updatedAt": "2018-03-07T12:44:33.830Z"
}