{
  "contractName": "Custodian",
  "abi": [
    {
      "constant": false,
      "inputs": [
        {
          "name": "batchSize",
          "type": "uint256"
        }
      ],
      "name": "createClientBatch",
      "outputs": [
        {
          "name": "",
          "type": "uint256"
        }
      ],
      "payable": false,
      "stateMutability": "nonpayable",
      "type": "function"
    },
    {
      "constant": true,
      "inputs": [
        {
          "name": "clientID",
          "type": "uint256"
        }
      ],
      "name": "getClientAddrByID",
      "outputs": [
        {
          "name": "",
          "type": "address"
        }
      ],
      "payable": false,
      "stateMutability": "view",
      "type": "function"
    },
    {
      "constant": true,
      "inputs": [],
      "name": "owner",
      "outputs": [
        {
          "name": "",
          "type": "address"
        }
      ],
      "payable": false,
      "stateMutability": "view",
      "type": "function"
    },
    {
      "constant": false,
      "inputs": [
        {
          "name": "newOwner",
          "type": "address"
        }
      ],
      "name": "changeOwner",
      "outputs": [],
      "payable": false,
      "stateMutability": "nonpayable",
      "type": "function"
    },
    {
      "constant": false,
      "inputs": [
        {
          "name": "newSeed",
          "type": "uint256"
        }
      ],
      "name": "setSeed",
      "outputs": [],
      "payable": false,
      "stateMutability": "nonpayable",
      "type": "function"
    },
    {
      "constant": true,
      "inputs": [],
      "name": "volume",
      "outputs": [
        {
          "name": "",
          "type": "uint256"
        }
      ],
      "payable": false,
      "stateMutability": "view",
      "type": "function"
    },
    {
      "constant": false,
      "inputs": [],
      "name": "createClient",
      "outputs": [
        {
          "name": "",
          "type": "uint256"
        }
      ],
      "payable": false,
      "stateMutability": "nonpayable",
      "type": "function"
    },
    {
      "inputs": [],
      "payable": false,
      "stateMutability": "nonpayable",
      "type": "constructor"
    },
    {
      "anonymous": false,
      "inputs": [
        {
          "indexed": false,
          "name": "id",
          "type": "uint256"
        },
        {
          "indexed": false,
          "name": "newAddress",
          "type": "address"
        }
      ],
      "name": "CreateClient",
      "type": "event"
    },
    {
      "anonymous": false,
      "inputs": [
        {
          "indexed": false,
          "name": "time",
          "type": "uint256"
        }
      ],
      "name": "CustodianSeedChangedAt",
      "type": "event"
    },
    {
      "anonymous": false,
      "inputs": [
        {
          "indexed": false,
          "name": "amountOfClients",
          "type": "uint256"
        },
        {
          "indexed": false,
          "name": "time",
          "type": "uint256"
        }
      ],
      "name": "UpdateClientFinished",
      "type": "event"
    },
    {
      "constant": true,
      "inputs": [],
      "name": "getSeed",
      "outputs": [
        {
          "name": "",
          "type": "uint256"
        }
      ],
      "payable": false,
      "stateMutability": "view",
      "type": "function"
    }
  ],
  "bytecode": "0x6060604052341561000f57600080fd5b6000808190555033600160006101000a81548173ffffffffffffffffffffffffffffffffffffffff021916908373ffffffffffffffffffffffffffffffffffffffff160217905550610b1e806100666000396000f30060606040526004361061008e576000357c0100000000000000000000000000000000000000000000000000000000900463ffffffff16806309dfdcd01461009357806339e7357c146100ca5780636ee064f3146100f35780638da5cb5b14610156578063a6f9dae1146101ab578063c32a50f9146101e4578063c618a1e414610207578063cdbf6aeb14610230575b600080fd5b341561009e57600080fd5b6100b46004808035906020019091905050610259565b6040518082815260200191505060405180910390f35b34156100d557600080fd5b6100dd6102e3565b6040518082815260200191505060405180910390f35b34156100fe57600080fd5b610114600480803590602001909190505061034b565b604051808273ffffffffffffffffffffffffffffffffffffffff1673ffffffffffffffffffffffffffffffffffffffff16815260200191505060405180910390f35b341561016157600080fd5b6101696103e6565b604051808273ffffffffffffffffffffffffffffffffffffffff1673ffffffffffffffffffffffffffffffffffffffff16815260200191505060405180910390f35b34156101b657600080fd5b6101e2600480803573ffffffffffffffffffffffffffffffffffffffff1690602001909190505061040c565b005b34156101ef57600080fd5b61020560048080359060200190919050506104ae565b005b341561021257600080fd5b61021a61058c565b6040518082815260200191505060405180910390f35b341561023b57600080fd5b610243610592565b6040518082815260200191505060405180910390f35b60008033600160009054906101000a900473ffffffffffffffffffffffffffffffffffffffff1673ffffffffffffffffffffffffffffffffffffffff168173ffffffffffffffffffffffffffffffffffffffff161415156102b957600080fd5b600091505b838210156102dc576102ce610592565b5081806001019250506102be565b5050919050565b600033600160009054906101000a900473ffffffffffffffffffffffffffffffffffffffff1673ffffffffffffffffffffffffffffffffffffffff168173ffffffffffffffffffffffffffffffffffffffff1614151561034257600080fd5b60025491505090565b600033600160009054906101000a900473ffffffffffffffffffffffffffffffffffffffff1673ffffffffffffffffffffffffffffffffffffffff168173ffffffffffffffffffffffffffffffffffffffff161415156103aa57600080fd5b6003600084815260200190815260200160002060009054906101000a900473ffffffffffffffffffffffffffffffffffffffff16915050919050565b600160009054906101000a900473ffffffffffffffffffffffffffffffffffffffff1681565b33600160009054906101000a900473ffffffffffffffffffffffffffffffffffffffff1673ffffffffffffffffffffffffffffffffffffffff168173ffffffffffffffffffffffffffffffffffffffff1614151561046957600080fd5b81600160006101000a81548173ffffffffffffffffffffffffffffffffffffffff021916908373ffffffffffffffffffffffffffffffffffffffff1602179055505050565b600033600160009054906101000a900473ffffffffffffffffffffffffffffffffffffffff1673ffffffffffffffffffffffffffffffffffffffff168173ffffffffffffffffffffffffffffffffffffffff1614151561050d57600080fd5b826002819055507fe529ef0ea84e41252a74e1442c77659beab3d908c4938e7bbd7012a314a381c5426040518082815260200191505060405180910390a1600160005410151561058757600191505b60005482111515610586576105796105738361034b565b84610725565b818060010192505061055c565b5b505050565b60005481565b600080600033600160009054906101000a900473ffffffffffffffffffffffffffffffffffffffff1673ffffffffffffffffffffffffffffffffffffffff168173ffffffffffffffffffffffffffffffffffffffff161415156105f457600080fd5b6105fc610827565b92506002543361060a61083d565b808381526020018273ffffffffffffffffffffffffffffffffffffffff1673ffffffffffffffffffffffffffffffffffffffff16815260200192505050604051809103906000f080151561065d57600080fd5b9150816003600085815260200190815260200160002060006101000a81548173ffffffffffffffffffffffffffffffffffffffff021916908373ffffffffffffffffffffffffffffffffffffffff1602179055507f353f9d53713901f24a464b82b9ecda5d1c7d5f46cff964b15a9e40943d3f8f7e8383604051808381526020018273ffffffffffffffffffffffffffffffffffffffff1673ffffffffffffffffffffffffffffffffffffffff1681526020019250505060405180910390a182935050505090565b600033600160009054906101000a900473ffffffffffffffffffffffffffffffffffffffff1673ffffffffffffffffffffffffffffffffffffffff168173ffffffffffffffffffffffffffffffffffffffff1614151561078457600080fd5b8391508173ffffffffffffffffffffffffffffffffffffffff1663396f12c8846000604051602001526040518263ffffffff167c010000000000000000000000000000000000000000000000000000000002815260040180828152602001915050602060405180830381600087803b15156107fe57600080fd5b6102c65a03f1151561080f57600080fd5b50505060405180519050151561082157fe5b50505050565b6000600160005401600081905550600054905090565b6040516102a58061084e8339019056006060604052341561000f57600080fd5b6040516040806102a5833981016040528080519060200190919080519060200190919050508160018190555080600260006101000a81548173ffffffffffffffffffffffffffffffffffffffff021916908373ffffffffffffffffffffffffffffffffffffffff16021790555050506102188061008d6000396000f300606060405260043610610057576000357c0100000000000000000000000000000000000000000000000000000000900463ffffffff16806302d05d3f1461005c578063396f12c8146100b157806339e7357c146100ec575b600080fd5b341561006757600080fd5b61006f610115565b604051808273ffffffffffffffffffffffffffffffffffffffff1673ffffffffffffffffffffffffffffffffffffffff16815260200191505060405180910390f35b34156100bc57600080fd5b6100d2600480803590602001909190505061013b565b604051808215151515815260200191505060405180910390f35b34156100f757600080fd5b6100ff610184565b6040518082815260200191505060405180910390f35b600260009054906101000a900473ffffffffffffffffffffffffffffffffffffffff1681565b6000816001819055507f6ec643c7833f05e7096f1c018583250c97f053c3f919c6e6ecaefeaa9be2993f426040518082815260200191505060405180910390a160019050919050565b600033600260009054906101000a900473ffffffffffffffffffffffffffffffffffffffff1673ffffffffffffffffffffffffffffffffffffffff168173ffffffffffffffffffffffffffffffffffffffff161415156101e357600080fd5b600154915050905600a165627a7a7230582043654f72e74ce01f740f6c98793940ed4e08132211fcdddb7fbd3db178ea1feb0029a165627a7a72305820040b8645e947722b0c3d76b11ce125e8f58cebd35cc2dddd3401297c83961b990029",
  "source": "pragma solidity ^0.4.13;\n\ncontract Client {\n\n    address owner; // currently not in use\n    uint256 seed;\n    address public creator;\n\n    event ClientSeedChangedAt(uint256 time);\n\n    modifier onlyCreater(address sender){\n        require(sender == creator);\n        _;\n    }\n\n    /** Internal functions **/\n    function getRamdomNumber() internal view returns (uint256) {\n        return uint256(keccak256(seed));\n    }\n    /************************/\n\n\n    // Constructor\n    function Client(uint256 _seed, address _creator) public {\n        seed = _seed;\n        creator = _creator;\n    }\n\n    function changeSeed(uint256 newSeed) public returns (bool success) {\n        seed = newSeed;\n        ClientSeedChangedAt(now);\n\n        return true;\n    }\n  \n    function getSeed() public view onlyCreater(msg.sender) returns (uint256) {\n        return seed;\n    }\n  \n}\n\n\ncontract Custodian {\n\n    uint256 public volume;   // total volume of Clients\n    address public owner;\n    uint256 seed;\n    mapping (uint256 => address) clients;   // store Client IDs --> Client addresses\n\n    event CreateClient(uint256 id, address newAddress);\n    event CustodianSeedChangedAt(uint256 time);    \n    event UpdateClientFinished(uint256 amountOfClients, uint256 time);    \n\n    modifier onlyOwner(address sender){\n        require(sender == owner);\n        _;\n    }\n\n    /** Internal functions **/\n    function getNextID() internal returns (uint256) {\n        volume = volume + 1;   // Increment total volume\n        return volume;\n    }\n\n    function setSeedByAddress(address clientAddress, uint256 newSeed) internal onlyOwner(msg.sender) {\n        Client client = Client(clientAddress);\n        assert(client.changeSeed(newSeed)); // should receive the value \"true\" after successfully called the client contract, \n        // this is to make sure that the client contract does complete the request as expected \n    }\n    /************************/\n\n    \n    // Constructor\n    function Custodian() public {\n        volume = 0;\n        owner = msg.sender;\n    }\n\n    // Client creater\n    function createClient() public onlyOwner(msg.sender) returns (uint256) {\n        uint256 clientID = getNextID();\n        address clientAddress = new Client(seed , msg.sender);\n        clients[clientID] = clientAddress;\n        CreateClient(clientID, clientAddress);\n\n        return clientID;\n    }\n    \n    function createClientBatch(uint256 batchSize) public onlyOwner(msg.sender) returns (uint256) {\n        for (uint256 i = 0; i < batchSize; i++) {\n            createClient();\n        }\n    }\n\n    // Return Client address\n    function getClientAddrByID(uint256 clientID) public view onlyOwner(msg.sender) returns (address) {\n        return clients[clientID];\n    }\n    \n    function getSeed() public view onlyOwner(msg.sender) returns (uint256) {\n        return seed;\n    }\n\n    function setSeed(uint256 newSeed) public onlyOwner(msg.sender) {\n        seed = newSeed;\n        CustodianSeedChangedAt(now);\n\n        // if there exists client contracts \n        if (volume >= 1) { \n            for (uint256 i = 1; i <= volume; i++) {\n                setSeedByAddress(getClientAddrByID(i), newSeed);\n            }\n        }\n    }\n    \n    function changeOwner(address newOwner) public onlyOwner(msg.sender) {\n        owner = newOwner;\n    }\n}",
  "sourcePath": "/Users/yao-chiehhu/Documents/workspace/cryBlock/contracts/Custodian.sol",
  "compiler": {
    "name": "solc",
    "version": "0.4.19+commit.c4cbbb05.Emscripten.clang"
  },
  "schemaVersion": "1.0.1",
  "updatedAt": "2018-02-28T09:12:59.291Z"
}