{
  "contractName": "Custodian",
  "abi": [
    {
      "constant": false,
      "inputs": [
        {
          "name": "batchSize",
          "type": "uint256"
        }
      ],
      "name": "createClientBatch",
      "outputs": [
        {
          "name": "",
          "type": "uint256"
        }
      ],
      "payable": false,
      "stateMutability": "nonpayable",
      "type": "function"
    },
    {
      "constant": false,
      "inputs": [
        {
          "name": "newSeed",
          "type": "uint256"
        },
        {
          "name": "batchSize",
          "type": "uint256"
        }
      ],
      "name": "setSeedByBatch",
      "outputs": [],
      "payable": false,
      "stateMutability": "nonpayable",
      "type": "function"
    },
    {
      "constant": true,
      "inputs": [
        {
          "name": "clientID",
          "type": "uint256"
        }
      ],
      "name": "getClientAddrByID",
      "outputs": [
        {
          "name": "",
          "type": "address"
        }
      ],
      "payable": false,
      "stateMutability": "view",
      "type": "function"
    },
    {
      "constant": true,
      "inputs": [],
      "name": "owner",
      "outputs": [
        {
          "name": "",
          "type": "address"
        }
      ],
      "payable": false,
      "stateMutability": "view",
      "type": "function"
    },
    {
      "constant": false,
      "inputs": [
        {
          "name": "newOwner",
          "type": "address"
        }
      ],
      "name": "changeOwner",
      "outputs": [],
      "payable": false,
      "stateMutability": "nonpayable",
      "type": "function"
    },
    {
      "constant": false,
      "inputs": [
        {
          "name": "newSeed",
          "type": "uint256"
        }
      ],
      "name": "setSeed",
      "outputs": [],
      "payable": false,
      "stateMutability": "nonpayable",
      "type": "function"
    },
    {
      "constant": true,
      "inputs": [],
      "name": "volume",
      "outputs": [
        {
          "name": "",
          "type": "uint256"
        }
      ],
      "payable": false,
      "stateMutability": "view",
      "type": "function"
    },
    {
      "constant": false,
      "inputs": [],
      "name": "createClient",
      "outputs": [
        {
          "name": "",
          "type": "uint256"
        }
      ],
      "payable": false,
      "stateMutability": "nonpayable",
      "type": "function"
    },
    {
      "inputs": [],
      "payable": false,
      "stateMutability": "nonpayable",
      "type": "constructor"
    },
    {
      "anonymous": false,
      "inputs": [
        {
          "indexed": false,
          "name": "id",
          "type": "uint256"
        },
        {
          "indexed": false,
          "name": "newAddress",
          "type": "address"
        }
      ],
      "name": "CreateClient",
      "type": "event"
    },
    {
      "anonymous": false,
      "inputs": [
        {
          "indexed": false,
          "name": "time",
          "type": "uint256"
        }
      ],
      "name": "CustodianSeedChangedAt",
      "type": "event"
    },
    {
      "anonymous": false,
      "inputs": [
        {
          "indexed": false,
          "name": "amountOfClients",
          "type": "uint256"
        },
        {
          "indexed": false,
          "name": "time",
          "type": "uint256"
        }
      ],
      "name": "UpdateClientFinished",
      "type": "event"
    },
    {
      "constant": true,
      "inputs": [],
      "name": "getSeed",
      "outputs": [
        {
          "name": "",
          "type": "uint256"
        }
      ],
      "payable": false,
      "stateMutability": "view",
      "type": "function"
    }
  ],
  "bytecode": "0x6060604052341561000f57600080fd5b6000808190555033600160006101000a81548173ffffffffffffffffffffffffffffffffffffffff021916908373ffffffffffffffffffffffffffffffffffffffff160217905550610d63806100666000396000f300606060405260043610610099576000357c0100000000000000000000000000000000000000000000000000000000900463ffffffff16806309dfdcd01461009e57806315b26373146100d557806339e7357c146101015780636ee064f31461012a5780638da5cb5b1461018d578063a6f9dae1146101e2578063c32a50f91461021b578063c618a1e41461023e578063cdbf6aeb14610267575b600080fd5b34156100a957600080fd5b6100bf6004808035906020019091905050610290565b6040518082815260200191505060405180910390f35b34156100e057600080fd5b6100ff600480803590602001909190803590602001909190505061031a565b005b341561010c57600080fd5b610114610412565b6040518082815260200191505060405180910390f35b341561013557600080fd5b61014b600480803590602001909190505061047a565b604051808273ffffffffffffffffffffffffffffffffffffffff1673ffffffffffffffffffffffffffffffffffffffff16815260200191505060405180910390f35b341561019857600080fd5b6101a0610515565b604051808273ffffffffffffffffffffffffffffffffffffffff1673ffffffffffffffffffffffffffffffffffffffff16815260200191505060405180910390f35b34156101ed57600080fd5b610219600480803573ffffffffffffffffffffffffffffffffffffffff1690602001909190505061053b565b005b341561022657600080fd5b61023c60048080359060200190919050506105dd565b005b341561024957600080fd5b61025161064a565b6040518082815260200191505060405180910390f35b341561027257600080fd5b61027a610650565b6040518082815260200191505060405180910390f35b60008033600160009054906101000a900473ffffffffffffffffffffffffffffffffffffffff1673ffffffffffffffffffffffffffffffffffffffff168173ffffffffffffffffffffffffffffffffffffffff161415156102f057600080fd5b600091505b8382101561031357610305610650565b5081806001019250506102f5565b5050919050565b600033600160009054906101000a900473ffffffffffffffffffffffffffffffffffffffff1673ffffffffffffffffffffffffffffffffffffffff168173ffffffffffffffffffffffffffffffffffffffff1614151561037957600080fd5b836002819055507fe529ef0ea84e41252a74e1442c77659beab3d908c4938e7bbd7012a314a381c5426040518082815260200191505060405180910390a1600183101580156103cb5750600160005410155b80156103d957506000548311155b1561040c57600191505b828211151561040b576103fe6103f88361047a565b856107e3565b81806001019250506103e3565b5b50505050565b600033600160009054906101000a900473ffffffffffffffffffffffffffffffffffffffff1673ffffffffffffffffffffffffffffffffffffffff168173ffffffffffffffffffffffffffffffffffffffff1614151561047157600080fd5b60025491505090565b600033600160009054906101000a900473ffffffffffffffffffffffffffffffffffffffff1673ffffffffffffffffffffffffffffffffffffffff168173ffffffffffffffffffffffffffffffffffffffff161415156104d957600080fd5b6003600084815260200190815260200160002060009054906101000a900473ffffffffffffffffffffffffffffffffffffffff16915050919050565b600160009054906101000a900473ffffffffffffffffffffffffffffffffffffffff1681565b33600160009054906101000a900473ffffffffffffffffffffffffffffffffffffffff1673ffffffffffffffffffffffffffffffffffffffff168173ffffffffffffffffffffffffffffffffffffffff1614151561059857600080fd5b81600160006101000a81548173ffffffffffffffffffffffffffffffffffffffff021916908373ffffffffffffffffffffffffffffffffffffffff1602179055505050565b33600160009054906101000a900473ffffffffffffffffffffffffffffffffffffffff1673ffffffffffffffffffffffffffffffffffffffff168173ffffffffffffffffffffffffffffffffffffffff1614151561063a57600080fd5b6106468260005461031a565b5050565b60005481565b600080600033600160009054906101000a900473ffffffffffffffffffffffffffffffffffffffff1673ffffffffffffffffffffffffffffffffffffffff168173ffffffffffffffffffffffffffffffffffffffff161415156106b257600080fd5b6106ba6108e5565b9250600254336106c86108fb565b808381526020018273ffffffffffffffffffffffffffffffffffffffff1673ffffffffffffffffffffffffffffffffffffffff16815260200192505050604051809103906000f080151561071b57600080fd5b9150816003600085815260200190815260200160002060006101000a81548173ffffffffffffffffffffffffffffffffffffffff021916908373ffffffffffffffffffffffffffffffffffffffff1602179055507f353f9d53713901f24a464b82b9ecda5d1c7d5f46cff964b15a9e40943d3f8f7e8383604051808381526020018273ffffffffffffffffffffffffffffffffffffffff1673ffffffffffffffffffffffffffffffffffffffff1681526020019250505060405180910390a182935050505090565b600033600160009054906101000a900473ffffffffffffffffffffffffffffffffffffffff1673ffffffffffffffffffffffffffffffffffffffff168173ffffffffffffffffffffffffffffffffffffffff1614151561084257600080fd5b8391508173ffffffffffffffffffffffffffffffffffffffff1663396f12c8846000604051602001526040518263ffffffff167c010000000000000000000000000000000000000000000000000000000002815260040180828152602001915050602060405180830381600087803b15156108bc57600080fd5b6102c65a03f115156108cd57600080fd5b5050506040518051905015156108df57fe5b50505050565b6000600160005401600081905550600054905090565b60405161042c8061090c83390190560060606040526000600355341561001457600080fd5b60405160408061042c833981016040528080519060200190919080519060200190919050508160018190555080600260006101000a81548173ffffffffffffffffffffffffffffffffffffffff021916908373ffffffffffffffffffffffffffffffffffffffff160217905550505061039a806100926000396000f300606060405260043610610078576000357c0100000000000000000000000000000000000000000000000000000000900463ffffffff16806302d05d3f1461007d578063396f12c8146100d257806339e7357c1461010d57806361e3f29314610136578063c8989e611461016d578063e4b3f87e14610196575b600080fd5b341561008857600080fd5b6100906101bf565b604051808273ffffffffffffffffffffffffffffffffffffffff1673ffffffffffffffffffffffffffffffffffffffff16815260200191505060405180910390f35b34156100dd57600080fd5b6100f360048080359060200190919050506101e5565b604051808215151515815260200191505060405180910390f35b341561011857600080fd5b61012061022e565b6040518082815260200191505060405180910390f35b341561014157600080fd5b6101576004808035906020019091905050610296565b6040518082815260200191505060405180910390f35b341561017857600080fd5b61018061033e565b6040518082815260200191505060405180910390f35b34156101a157600080fd5b6101a961035d565b6040518082815260200191505060405180910390f35b600260009054906101000a900473ffffffffffffffffffffffffffffffffffffffff1681565b6000816001819055507f6ec643c7833f05e7096f1c018583250c97f053c3f919c6e6ecaefeaa9be2993f426040518082815260200191505060405180910390a160019050919050565b600033600260009054906101000a900473ffffffffffffffffffffffffffffffffffffffff1673ffffffffffffffffffffffffffffffffffffffff168173ffffffffffffffffffffffffffffffffffffffff1614151561028d57600080fd5b60015491505090565b60008060035414156102e657600154604051808281526020019150506040518091039020604051808260001916600019168152602001915050604051809103902060019004600381905550610326565b6003546040518082815260200191505060405180910390206040518082600019166000191681526020019150506040518091039020600190046003819055505b60018260035481151561033557fe5b06019050919050565b60006001600a60014303406001900481151561035657fe5b0601905090565b6000806003819055506003549050905600a165627a7a7230582049791439fcfba9f3761081b1316987dc26298d0c87b9d7a12da09174850fb9150029a165627a7a72305820daeb6b02d798c2119982694f26bc5b8454b550cd1049e2d6d7e70cfef76587ce0029",
  "source": "pragma solidity ^0.4.13;\n\ncontract Client {\n\n    address owner; // currently not in use\n    uint256 seed;\n    address public creator;\n    uint256 randomState = 0;\n\n    event ClientSeedChangedAt(uint256 time);\n\n    modifier onlyCreater(address sender){\n        require(sender == creator);\n        _;\n    }\n\n    /** Internal functions **/\n    // function getRamdomNumber() internal view returns (uint256) {\n    //     uint256 random_number = uint(block.blockhash(block.number-1))%10 + 1;\n    //     // uint256(keccak256(seed));\n    //     return random_number;\n    // }\n    /************************/\n    \n    function resetRandomState() public returns (uint256) {\n        randomState = 0;\n        return randomState;\n    }\n    \n    function getRamdomNumber() public view returns (uint256) {\n        return uint(block.blockhash(block.number-1))%10 + 1;\n    }\n    \n    function getRamdomNumberSeedDepend(uint256 max) public returns (uint256) {\n        // First Time\n        if (randomState == 0) {\n            randomState = uint256(keccak256(keccak256(seed)));\n        } else {\n            randomState = uint256(keccak256(keccak256(randomState)));\n        }\n        return uint256(randomState) % max + 1;\n    }\n\n\n    // Constructor\n    function Client(uint256 _seed, address _creator) public {\n        seed = _seed;\n        creator = _creator;\n    }\n\n    function changeSeed(uint256 newSeed) public returns (bool success) {\n        seed = newSeed;\n        ClientSeedChangedAt(now);\n\n        return true;\n    }\n  \n    function getSeed() public view onlyCreater(msg.sender) returns (uint256) {\n        return seed;\n    }\n  \n}\n\n\ncontract Custodian {\n\n    uint256 public volume;   // total volume of Clients\n    address public owner;\n    uint256 seed;\n    mapping (uint256 => address) clients;   // store Client IDs --> Client addresses\n\n    event CreateClient(uint256 id, address newAddress);\n    event CustodianSeedChangedAt(uint256 time);    \n    event UpdateClientFinished(uint256 amountOfClients, uint256 time);    \n\n    modifier onlyOwner(address sender){\n        require(sender == owner);\n        _;\n    }\n\n    /** Internal functions **/\n    function getNextID() internal returns (uint256) {\n        volume = volume + 1;   // Increment total volume\n        return volume;\n    }\n\n    function setSeedByAddress(address clientAddress, uint256 newSeed) internal onlyOwner(msg.sender) {\n        Client client = Client(clientAddress);\n        assert(client.changeSeed(newSeed)); // should receive the value \"true\" after successfully called the client contract, \n        // this is to make sure that the client contract does complete the request as expected \n    }\n    /************************/\n\n    \n    // Constructor\n    function Custodian() public {\n        volume = 0;\n        owner = msg.sender;\n    }\n\n    // Client creater\n    function createClient() public onlyOwner(msg.sender) returns (uint256) {\n        uint256 clientID = getNextID();\n        address clientAddress = new Client(seed , msg.sender);\n        clients[clientID] = clientAddress;\n        CreateClient(clientID, clientAddress);\n\n        return clientID;\n    }\n    \n    function createClientBatch(uint256 batchSize) public onlyOwner(msg.sender) returns (uint256) {\n        for (uint256 i = 0; i < batchSize; i++) {\n            createClient();\n        }\n    }\n\n    // Return Client address\n    function getClientAddrByID(uint256 clientID) public view onlyOwner(msg.sender) returns (address) {\n        return clients[clientID];\n    }\n    \n    function getSeed() public view onlyOwner(msg.sender) returns (uint256) {\n        return seed;\n    }\n\n    function setSeed(uint256 newSeed) public onlyOwner(msg.sender) {\n        setSeedByBatch(newSeed, volume);\n        // seed = newSeed;\n        // CustodianSeedChangedAt(now);\n\n        // // if there exists client contracts \n        // if (volume >= 1) { \n        //     for (uint256 i = 1; i <= volume; i++) {\n        //         setSeedByAddress(getClientAddrByID(i), newSeed);\n        //     }\n        // }\n    }\n    \n    function setSeedByBatch(uint256 newSeed, uint256 batchSize) public onlyOwner(msg.sender) {\n        seed = newSeed;\n        CustodianSeedChangedAt(now);\n\n        // if there exists client contracts \n        if (batchSize >= 1 && volume >=1 && batchSize <= volume) { \n            for (uint256 i = 1; i <= batchSize; i++) {\n                setSeedByAddress(getClientAddrByID(i), newSeed);\n            }\n        }\n    }\n    \n    function changeOwner(address newOwner) public onlyOwner(msg.sender) {\n        owner = newOwner;\n    }\n}",
  "sourcePath": "/Users/yao-chiehhu/Documents/workspace/iodine-backend/contracts/Custodian.sol",
  "compiler": {
    "name": "solc",
    "version": "0.4.19+commit.c4cbbb05.Emscripten.clang"
  },
  "schemaVersion": "1.0.1",
  "updatedAt": "2018-03-07T12:48:10.971Z"
}